:020000040000FA
:060000000A128A110C280F
:10000800FE00030EF0000A08F1000A128A11D62831
:100018000A128A110F28F701F801F901FA01830180
:100028000A128A11172883160313860107108710EE
:1000380007110A128A11AE200A128A1190300A1288
:100048008A116C200A128A1101300A128A118F2033
:100058000A128A11F501F6010130F5070318F60AAC
:100068000030F6073A307602983003197502031CFF
:100078003E283F28302818300A128A116C200A12AC
:100088008A112E280A128A110C28F200720883128B
:1000980003138600071487100715F701F80178087D
:1000A800803AFF0083307F02031D5C28E830770226
:1000B800031C5F286028612868280130F7070318A7
:1000C800F80A0030F80753288312031307110800B1
:1000D800F2007208831203138600071087100715B1
:1000E800F701F8017808803AFF0083307F02031D8A
:1000F8007F28E8307702031C8228832884288B28ED
:100108000130F7070318F80A0030F8077628831239
:10011800031307110800F400A128740884000A12C8
:100128008A11C7200A128A110A128A1149200A1252
:100138008A110130F3007308F407740884000A1266
:100148008A11C7200A128A11003A031DAC28AD286B
:100158009128080038300A128A116C200A128A1174
:100168000C300A128A116C200A128A1106300A12FF
:100178008A116C200A128A1180300A128A116C20A6
:100188000A128A11080000308A000408840A8207CB
:100198000034773465346E346134733420346C340D
:1001A8007934003471088A00700E8300FE0E7E0ECA
:0201B80009003C
:04400E00D420FF3F7C
:00000001FF
