:020000040000FA
:060000000A128A110C280F
:10000800FE00030EF0000A08F1000A128A11732894
:100018000A128A110F28F301F40183010A128A11C6
:100028006A288316031788018901081483160313A5
:1000380005140510061486148701880189018312A6
:1000480003138501860187018801890170308316B1
:1000580003138F040F1481120112811101158114E9
:100068000110FF30831203138100831603138113D9
:100078001514951415150A128A1154200A128A119A
:100088008B178B160B118B150B10831603130C177C
:10009800831203130C138316031316149614080003
:1000A800831603139F131F129F12831203131F0833
:1000B8003F3940389F00C3309F051030F200F20BE3
:1000C80063280000831203131F1408000A128A1100
:1000D80015200A128A116F280A128A110C28710831
:0C00E8008A00700E8300FE0E7E0E0900E0
:04400E00D420FF3F7C
:00000001FF
