:020000040000FA
:060000000A128A110C280F
:10000800FE00030EF0000A08F1000A128A112129E5
:100018000A128A110F28FA01FB0183010A128A11B8
:1000280015280A128A1171200A128A110A128A11D5
:10003800B0200A128A1190300A128A110C210A1271
:100048008A11F501F50A01300A128A1145200A12AF
:100058008A110A300A128A1191200A128A11F501AE
:10006800F50A02300A128A1145200A128A11013053
:100078000A128A1191200A128A1125280A128A1155
:100088000C28F7007703031D4A284B285B287508BE
:100098007F3EF6007608F8007808F6007608F90042
:1000A80079080A128A110C210A128A117028023062
:1000B8007706031D6028612870287508BF3EF60082
:1000C8007608F8007808F6007608F90079080A1228
:1000D8008A110C210A128A11080083160317880155
:1000E80089010814881483160313860107108710E2
:1000F800071170308F040F140A128A11E1200A12B6
:100108008A118B178B120B118B110B10831603138B
:100118000C13831203130C130800F600A3287608A7
:1001280084000A128A11C9200A128A110A128A1135
:10013800F7200A128A110130F5007508F6077608CB
:1001480084000A128A11C9200A128A11003A031D72
:10015800AE28AF289328080038300A128A110C21DB
:100168000A128A110C300A128A110C210A128A11F9
:1001780006300A128A110C210A128A1180300A12DA
:100188008A110C210A128A11080000308A0004081A
:10019800840A82070034703472346F3462346534F0
:1001A8006D346F3473340034773465346E346134AD
:1001B800733420346C3479340034831603139F135A
:1001C8001F129F12831203131F083F3940389F00E4
:1001D800C3309F051030F200F20BF02800008312A4
:1001E80003131F140800F400740883120313860015
:1001F8000714871007150330F3009730F200F20B4D
:100208000329F30B03290829831203130711080094
:10021800F40074088312031386000710871007156B
:100228000330F3009730F200F20B1829F30B18296A
:100238001D29831203130711080071088A00700E24
:080248008300FE0E7E0E09008A
:04400E00D420FF3F7C
:00000001FF
