:020000040000FA
:060000000A128A110C280F
:10000800FE00030EF0000A08F1000A128A119F2967
:100018000A128A110F28FA01FB0183010A128A11B8
:100028005628831203139F181A281B2855283A2884
:100038001E08F2007208FB004230F200F20B222880
:100048000000831203131F08C33904389F004D288A
:100058001E08F2007208FA004230F200F20B322851
:100068000000C330831203139F054D281F0CF200B4
:10007800720C0F39F300F4017408003A031945288B
:100088004D287308003A03191C28013A03192C2833
:100098004D284230F200F20B4F2800008312031360
:1000A8009F1408000A128A11BD200A128A110A1226
:1000B8008A1146210A128A1190300A128A118A215D
:1000C8000A128A11F501F50A01300A128A119120E3
:1000D8000A128A1112300A128A1127210A128A1169
:1000E800F501F50A02300A128A1191200A128A11C2
:1000F80001300A128A1127210A128A110A128A115A
:1001080015200A128A117B088312031388007A08C3
:10011800890066280A128A110C28F7007703031D44
:1001280096289728A72875087F3EF6007608F800D5
:100138007808F6007608F90079080A128A118A21E7
:100148000A128A11BC2802307706031DAC28AD2894
:10015800BC287508BF3EF6007608F8007808F60057
:100168007608F90079080A128A118A210A128A1176
:100178000800831603178801890108148814831658
:10018800031386010710871007118801890183125C
:1001980003138601870188018901703083160313D0
:1001A8008F040F140A128A115F210A128A118B1701
:1001B8008B120B118B110B10831603130C13831264
:0601C80003130C130800F4
:1002000001308A000408840A82070034793461349A
:100210002034763461346C3469346D346F34733423
:1002200020346734613476346534723400342034D9
:10023000733465346E3431342034733465346E3441
:1002400032342034733465346E3433340034F60081
:100250003929760884000A128A1100210A128A11AB
:100260000A128A1175210A128A110130F5007508E7
:10027000F607760884000A128A1100210A128A11F0
:10028000003A031D442945292929080038300A125B
:100290008A118A210A128A110C300A128A118A21C3
:1002A0000A128A1106300A128A118A210A128A1148
:1002B00080300A128A118A210A128A1108008316D4
:1002C00003139F131F129F12831203131F083F393A
:1002D00040389F00C3309F051030F200F20B6E29AA
:1002E0000000831203131F140800F4007408831223
:1002F000031386000714871007150330F3009730A7
:10030000F200F20B8129F30B812986298312031352
:1003100007110800F4007408831203138600071005
:10032000871007150330F3009730F200F20B96297F
:10033000F30B96299B2983120313071108007108F8
:0C0340008A00700E8300FE0E7E0E090085
:04400E00D420FF3F7C
:00000001FF
