:020000040000FA
:060000000A128A110C280F
:10000800FE00030EF0000A08F1000A128A115428B3
:100018000A128A110F2883010A128A114B288316A3
:1000280003178801890108148316031305140510A2
:100038000614861487018801890183120313850138
:1000480086018701880189017030831603138F04A4
:100058000F14811201128111011581140110FF3052
:100068008312031381008316031381131514951447
:1000780015158B178B160B118B150B100C1783127C
:1000880003130C13831603131614961408000A128C
:100098008A1113200A128A1150280A128A110C2870
:0E00A80071088A00700E8300FE0E7E0E0900A5
:04400E00D420FF3F7C
:00000001FF
