:020000040000FA
:060000000A128A110C280F
:10000800FE00030EF0000A08F1000A128A11E92B1B
:100018000A128A110F28FA01FB0183120313BF0188
:10002800C001C101C201C30183010A128A11032A56
:100038000A3083120313A4000030A5006430F200D4
:100048000030F3004308A800A9010310280DF400AC
:10005800290DF5000A128A113F210A128A11730824
:1000680083120313A7007208A6000A128A11A82196
:100078000A128A118312031324080A128A114E22C3
:100088000A128A1183120313AA002A08AB002E3021
:10009800A8002808AC000A30A4000030A50064308D
:1000A800F2000030F3004308A800A9010310280D4E
:1000B800F400290DF5000A128A113F210A128A114B
:1000C800730883120313A7007208A6000A128A1184
:1000D800A8210A128A118312031324080A128A110A
:1000E8004E220A128A1183120313AA002A08AD00AD
:1000F8000A30A4000030A5004308A800A901031095
:10010800280DA600290DA7000A128A11A8210A1293
:100118008A118312031324080A128A114E220A1222
:100128008A1183120313AA002A08AE002030A800FF
:100138002808AF000A30A4000030A5006430F2009F
:100148000030F3004208A800A9010310280DF400AC
:10015800290DF5000A128A113F210A128A11730823
:1001680083120313A7007208A6000A128A11A82195
:100178000A128A118312031324080A128A114E22C2
:100188000A128A1183120313AA002A08B0002E301B
:10019800A8002808B1000A30A4000030A500643087
:1001A800F2000030F3004208A800A9010310280D4E
:1001B800F400290DF5000A128A113F210A128A114A
:1001C800730883120313A7007208A6000A128A1183
:1001D800A8210A128A118312031324080A128A1109
:1001E8004E220A128A1183120313AA002A08B200A7
:1001F8000A30A4000030A5004208A800A901031095
:10020800280DA600290DA7000A128A11A8210A1292
:100218008A118312031324080A128A114E220A1221
:100228008A1183120313AA002A08B3002030A800F9
:100238002808B4001A080A128A114E220A128A11D2
:1002480083120313A8002808B5002E30A800280838
:10025800B6002030A8002808B7002030A8002808D9
:10026800B8002030A8002808B9002030A8002808C5
:10027800BA002B30080083120313A101F31F45298C
:1002880046294D29F209F309F20A0319F30AA101D3
:10029800A10AF51F502951295A29F409F509F40A28
:1002A8000319F50A0130F6007608A106A201A30198
:1002B800720873040319612962299929A001A00A07
:1002C800702901300310F20DF30DFF3E031D66295E
:1002D8000130F6007608A007F31F732974296529F1
:1002E80001300310A20DA30DFF3E031D75297308ED
:1002F8007502031D812972087402031C842985294B
:100308008C297208F4027308031CF503F502221401
:1003180001300310F30CF20CFF3E031D8D29013050
:10032800A002031D982999297429210803199D29D8
:100338009E29A329A209A309A20A0319A30A23082B
:10034800F3002208F2000800F90183120313A71F23
:10035800AE29AF29B629A609A709A60A0319A70A2B
:10036800F901F90AA51FB929BA29BF29A409A509BC
:10037800A40A0319A50A240825040319C429C529B0
:10038800F429F801F80AD32901300310A40DA50DAA
:10039800FF3E031DC9290130F7007708F807A51F9C
:1003A800D629D729C82925082702031DDD292408AD
:1003B8002602031CE029E129E7292408A6022508CA
:1003C800031CA703A70201300310A50CA40CFF3ED1
:1003D800031DE8290130F802031DF329F429D72960
:1003E80079080319F829F929FE29A609A709A60AEF
:1003F8000319A70A2708A5002608A40008000A125E
:100408008A111C230A128A110A128A117C230A12E1
:100418008A1190300A128A11D4230A128A110A12F8
:100428008A118D220A128A110A128A1162230A126B
:100438008A11F501F50A01300A128A11C8220A1236
:100448008A11013083120313BB008030BC000A12EA
:100458008A11F4220A128A11F501F50A02300A12E9
:100468008A11C8220A128A110A128A111C200A1239
:100478008A1183120313BD00BE013D08BB003E086C
:10048800BC000A128A11F4220A128A11132A0A12CB
:100498008A110C28F400642A30308C2A31308C2AD6
:1004A80032308C2A33308C2A34308C2A35308C2ADE
:1004B80036308C2A37308C2A38308C2A39308C2ABE
:1004C8007408F200F3017308003A03196C2A502AE1
:1004D8007208003A0319502A013A0319522A033ABA
:1004E8000319542A013A0319562A073A0319582AB4
:1004F800013A03195A2A033A03195C2A013A0319E3
:100508005E2A0F3A0319602A013A0319622A502A0F
:100518000800831203139F18922A932AC72AB42A21
:100528001E08F2007208C3004230F200F20B9A2A49
:100538000000831203131F08C33904389F009F1457
:10054800C72A1E08F2007208C2004230F200F20BFD
:10055800AB2A0000C330831203139F059F14C72AD8
:100568001F0CF200720C0F39F300F4017408003A02
:100578000319BF2AC72A7308003A0319942A013AB3
:100588000319A52AC72A0800F7007703031DCD2AF7
:10059800CE2ADE2A75087F3EF6007608F80078082D
:1005A800F6007608F90079080A128A11D4230A128B
:1005B8008A11F32A02307706031DE32AE42AF32A74
:1005C8007508BF3EF6007608F8007808F600760849
:1005D800F90079080A128A11D4230A128A1108002C
:1005E8000B2B3C08FF003B0884000A128A114323A6
:1005F8000A128A110A128A1195230A128A110130E5
:1006080083120313BB070318BC0A0030BC0783120C
:1006180003133C08FF003B0884000A128A11432395
:100628000A128A11003A031D1A2B1B2BF52A0800FF
:100638008316031788018901081488148316031385
:100648008601881208138813831203138601880110
:100658007030831603138F040F140A128A11BF23F4
:100668000A128A110A128A11AA230A128A118B17EE
:10067800831603138C16831203138C120800FF1BB6
:100688004D2B83137F1883170008840A0319FF0A68
:10069800080003308A000408840A820700342034E2
:1006A8005334313420342034203453343234203419
:1006B8002034203453343334203400346B2B01304D
:1006C800F2007208FA077B2B0130FA027B2B7B08B9
:1006D800F200F3017308003A0319732B7B2B72089D
:1006E800013A0319632B033A0319682B7B2B080083
:1006F80038300A128A11D4230A128A110C300A12CD
:100708008A11D4230A128A1106300A128A11D423B4
:100718000A128A1180300A128A11D4230A128A1105
:100728000800F4007408831203138600881608135F
:1007380088170330F3009730F200F20BA12BF30B6C
:10074800A12BA62B83120313881308008316031307
:1007580018121815831603178715193083160313F3
:1007680099009A0183120313981718131816831601
:10077800031398160800831603139F131F129F1262
:10078800831203131F083F3940389F00C3309F0569
:100798002130F200F20BCE2B831203131F14080032
:1007A800F40074088312031386008812081388174C
:1007B8000330F3009730F200F20BE02BF30BE02B41
:1007C800E52B8312031388130800831203138C1E6E
:1007D800EE2BEF2BF22B7B089A008C1271088A0003
:0A07E800700E8300FE0E7E0E090065
:04400E00D420FF3F7C
:00000001FF
