:020000040000FA
:060000000A128A110C280F
:10000800FE00030EF0000A08F1000A128A112829DE
:100018000A128A110F28FA01FB0183010A128A11B8
:1000280015280A128A1171200A128A110A128A11D5
:10003800CF200A128A1190300A128A1113210A124B
:100048008A11F501F50A01300A128A1145200A12AF
:100058008A1101300A128A11B0200A128A11F50198
:10006800F50A02300A128A1145200A128A11113043
:100078000A128A11B0200A128A1125280A128A1136
:100088000C28F7007703031D4A284B285B287508BE
:100098007F3EF6007608F8007808F6007608F90042
:1000A80079080A128A1113210A128A11702802305B
:1000B8007706031D6028612870287508BF3EF60082
:1000C8007608F8007808F6007608F90079080A1228
:1000D8008A1113210A128A1108008316031788014E
:1000E80089010814881483160313860107108710E2
:1000F800071170308F040F140A128A11E8200A12AF
:100108008A118B178B120B118B110B10831603138B
:100118000C13831203130C13080000308A00040820
:10012800840A820700342034733465346E343134E1
:100138002034733465346E34323420347334653487
:100148006E3433340034703472346F34623465344E
:100158006D346F3473340034F600C2287608840096
:100168000A128A1191200A128A110A128A11FE2093
:100178000A128A110130F5007508F607760884001E
:100188000A128A1191200A128A11003A031DCD28F9
:10019800CE28B228080038300A128A1113210A1210
:1001A8008A110C300A128A1113210A128A11063098
:1001B8000A128A1113210A128A1180300A128A112E
:1001C80013210A128A110800831603139F131F12A2
:1001D8009F12831203131F083F3940389F00C33012
:1001E8009F051030F200F20BF7280000831203136A
:1001F8001F140800F4007408831203138600071400
:10020800871007150330F3009730F200F20B0A2924
:10021800F30B0A290F298312031307110800F400AE
:10022800740883120313860007108710071503301C
:10023800F3009730F200F20B1F29F30B1F29242932
:10024800831203130711080071088A00700E8300D7
:06025800FE0E7E0E0900FF
:04400E00D420FF3F7C
:00000001FF
