:020000040000FA
:060000000A128A110C280F
:10000800FE00030EF0000A08F1000A128A118E2C75
:100018000A128A110F28FA01FB0183120313B00197
:10002800B101B201B301B401B501B601B701B8011C
:10003800B901BA01BB01BC01BD0183010A128A11D1
:100048008F2A0A3083120313A4000030A5006430FD
:10005800F2000030F3003D08A800A9012808F400C8
:100068002908F5000A128A11CB210A128A1173088D
:1000780083120313A7007208A6000A128A113422F9
:100088000A128A11831203132408AA002A08BA0044
:100098000A30A4000030A5000A30F2000030F30056
:1000A8003D08A800A9012808F4002908F5000A124B
:1000B8008A11CB210A128A11730883120313A7002D
:1000C8007208A6000A128A1134220A128A118312AF
:1000D80003132408AA002A08B9000A30A400003033
:1000E800A5003D08A800A9012808A6002908A7001E
:1000F8000A128A1134220A128A118312031324085D
:10010800AA002A08B8000A30A4000030A50064300C
:10011800F2000030F3003C08A800A9012808F40008
:100128002908F5000A128A11CB210A128A117308CC
:1001380083120313A7007208A6000A128A11342238
:100148000A128A11831203132408AA002A08BA0083
:100158000A30A4000030A5000A30F2000030F30095
:100168003C08A800A9012808F4002908F5000A128B
:100178008A11CB210A128A11730883120313A7006C
:100188007208A6000A128A1134220A128A118312EE
:1001980003132408AA002A08B9000A30A400003072
:1001A800A5003C08A800A9012808A6002908A7005E
:1001B8000A128A1134220A128A118312031324089C
:1001C800AA002A08B8000A30A4000030A50064304C
:1001D800F2000030F3003B08A800A9012808F40049
:1001E8002908F5000A128A11CB210A128A1173080C
:1001F80083120313A7007208A6000A128A11342278
:100208000A128A11831203132408AA002A08BA00C2
:100218000A30A4000030A5000A30F2000030F300D4
:100228003B08A800A9012808F4002908F5000A12CB
:100238008A11CB210A128A11730883120313A700AB
:100248007208A6000A128A1134220A128A1183122D
:1002580003132408AA002A08B9000A30A4000030B1
:10026800A5003B08A800A9012808A6002908A7009E
:100278000A128A1134220A128A11831203132408DB
:10028800AA002A08B8000800831203133A080A12C1
:100298008A1119230A128A11F500750883120313AB
:1002A800A00039080A128A1119230A128A11F500C6
:1002B800750883120313A10038080A128A1119233A
:1002C8000A128A11F500750883120313A200203060
:1002D800F5007508A3002030F5007508A40000306B
:1002E8000A128A1119230A128A11F5007508831255
:1002F8000313A50000300A128A1119230A128A1161
:10030800F500750883120313A60000300A128A113B
:1003180019230A128A11F500750883120313A7001E
:100328002030F5007508A8002030F5007508A900F0
:1003380000300A128A1119230A128A11F500750869
:1003480083120313AA0000300A128A1119230A1211
:100358008A11F500750883120313AB0000300A12E6
:100368008A1119230A128A11F500750883120313DA
:10037800AC002030F5007508AD002030F500750898
:10038800AE002030F5007508AF0020300800831259
:100398000313A101F31FD129D229D929F209F3099D
:1003A800F20A0319F30AA101A10AF51FDC29DD29C4
:1003B800E629F409F509F40A0319F50A0130F600EB
:1003C8007608A106A201A301720873040319ED2996
:1003D800EE29252AA001A00AFC2901300310F20DFC
:1003E800F30DFF3E031DF2290130F6007608A00741
:1003F800F31FFF29002AF12901300310A20DA30DD4
:10040800FF3E031D012A73087502031D0D2A720899
:100418007402031C102A112A182A7208F40273089D
:10042800031CF503F502221401300310F30CF20C3F
:10043800FF3E031D192A0130A002031D242A252A84
:10044800002A21080319292A2A2A2F2AA209A309DE
:10045800A20A0319A30A2308F3002208F2000800DD
:10046800F90183120313A71F3A2A3B2A422AA60935
:10047800A709A60A0319A70AF901F90AA51F452A17
:10048800462A4B2AA409A509A40A0319A50A24087F
:1004980025040319502A512A802AF801F80A5F2AEC
:1004A80001300310A40DA50DFF3E031D552A013090
:1004B800F7007708F807A51F622A632A542A250837
:1004C8002702031D692A24082602031C6C2A6D2AA8
:1004D800732A2408A6022508031CA703A7020130D3
:1004E8000310A50CA40CFF3E031D742A0130F8026A
:1004F800031D7F2A802A632A79080319842A852AFA
:100508008A2AA609A709A60A0319A70A2708A5007F
:100518002608A40008000A128A1158230A128A1110
:100528000A128A1121240A128A1190300A128A1199
:1005380079240A128A110A128A11D8220A128A11F7
:100548000A128A11D7230A128A110A128A1125203F
:100558000A128A11F501F50A01300A128A11852357
:100568000A128A110130F6008030F7000A128A1147
:10057800B1230A128A11F501F50A02300A128A110A
:1005880085230A128A110A128A1148210A128A112D
:10059800F6000030F7000A128A11B1230A128A11F4
:1005A8009F2A0A128A110C28831203139F18DD2A26
:1005B800DE2A182BFD2A1E08F2007208BD00423000
:1005C800F200F20BE52A0000831203131F08C33957
:1005D80004389F00102B1E08F2007208BC0042303D
:1005E800F200F20BF52A0000C330831203139F05B3
:1005F800102B1F0CF200720C0F39F300F401740871
:10060800003A0319082B102B7308003A0319DF2A44
:10061800013A0319EF2A102B4230F200F20B122B89
:100628000000831203139F140800F4002F2B3030AE
:10063800572B3130572B3230572B3330572B343020
:10064800572B3530572B3630572B3730572B383000
:10065800572B3930572B7408F200F3017308003A0E
:100668000319372B572B7208003A03191B2B013A31
:1006780003191D2B033A03191F2B013A0319212BC8
:10068800073A0319232B013A0319252B033A0319B7
:10069800272B013A0319292B0F3A03192B2B013A5F
:1006A80003192D2B572B080083160317880189017E
:1006B80008148814831603138601881208138813F4
:1006C800890183120313860188018901703083161A
:1006D80003138F040F140A128A1164240A128A1150
:1006E8000A128A114F240A128A118B178B120B11C6
:1006F8008B110B10831603130C13831203130C13A3
:100708000800F7007703031D8A2B8B2B9B2B75089A
:100718007F3EF6007608F8007808F6007608F900BB
:1007280079080A128A1179240A128A11B02B023028
:100738007706031DA02BA12BB02B7508BF3EF60032
:100748007608F8007808F6007608F90079080A12A1
:100758008A1179240A128A110800C62B7708FF002B
:10076800760884000A128A1100240A128A110A12D1
:100778008A113A240A128A110130F6070318F70A77
:100788000030F707770883120313FF007608840008
:100798000A128A1100240A128A11003A031DD52B65
:1007A800D62BB22B0800E82B0130F2007208831216
:1007B8000313BB07F82B013083120313BB02F82B7A
:1007C80083120313BB01F82B7B08F200F3017308B3
:1007D800003A0319F02BE42B7208013A0319D82BBD
:0A07E800033A0319DF2BE42B08008D
:10080000FF1B0A2C83137F1883170008840A03191F
:10081000FF0A080004308A000408840A82070034B2
:100820002034533465346E343134203453346534D9
:100830006E3432342034533465346E3433342034DF
:10084000003438300A128A1179240A128A110C30C5
:100850000A128A1179240A128A1106300A128A11A0
:1008600079240A128A1180300A128A1179240A1214
:100870008A110800F4007408831203138600881696
:10088000081388170330F3009730F200F20B462C60
:10089000F30B462C4B2C831203138813080083168A
:1008A00003131812181583160317871519308316AA
:1008B000031399009A01831203139817181318163B
:1008C0008316031398160800831603139F131F1231
:1008D0009F12831203131F083F3940389F00C33013
:1008E0009F052130F200F20B732C831203131F14A7
:1008F0000800F4007408831203138600881208139A
:1009000088170330F3009730F200F20B852CF30BBD
:10091000852C8A2C83120313881308008312031377
:100920008C1E932C942C972C7B089A008C127108A7
:0C0930008A00700E8300FE0E7E0E09008F
:04400E00D420FF3F7C
:00000001FF
