:020000040000FA
:100000000A128A11FC2F00308A000408840A820731
:1000100000347734773477342E3465346C34653477
:100020006334743472346F3453346F346D346534E4
:100030002E3463346F346D3400344C3443344434E0
:1000400020344C346934623472346134723479341B
:10005000203466346F34723400344434653476347A
:1000600065346C346F347034653464342034423415
:100070007934003465346C346534633474347234E8
:100080006F3453346F346D346534003448346F3416
:100090006C34613420344D3475346E3464346F34D0
:1000A00000344D3450344C344134423420345834CC
:0600B00043343834003433
:100AFE0000300A128A11A6250A128A1101300A1232
:100B0E008A11A6250A128A11080001300A128A11CA
:100B1E00A6250A128A1108300A128A11A6250A126F
:100B2E008A11080001300A128A11A6250A128A11AA
:100B3E000C300A128A11A6250A128A110800F30037
:100B4E0083120313081173080A128A11C0250A12A0
:100B5E008A118312031388150B30F2006230F100F4
:100B6E00F10BB72DF20BB72D000083120313881172
:100B7E000800F000701CC42DC52DC92D831203135F
:100B8E000816CC2D831203130812F01CCF2DD02D76
:100B9E00D22D8816D32D8812701DD62DD72DD92D76
:100BAE000817DA2D0813F01DDD2DDE2DE02D881728
:100BBE00E12D88130800F700F501F601F92D7508EF
:100BCE00770784000A128A1103200A128A110A1268
:100BDE008A1107260A128A110130F5070318F60A40
:100BEE000030F6077508770784000A128A11032071
:100BFE000A128A11003A031D052E062EE62D080054
:100C0E00F4007408F1007108F300730883120313E3
:100C1E00860074080F39F1007108F3007408F0397A
:100C2E00F1007108F20008157208F100043003108B
:100C3E00F10CFF3E031D1E2E71080A128A11C025EB
:100C4E000A128A118312031388151A30F100F10B60
:100C5E002E2E000083120313881173080A128A11B4
:100C6E00C0250A128A118312031388151A30F10057
:100C7E00F10B3F2E00008312031388110800F700BA
:100C8E007703031D4B2E4C2E6F2E74087F3EF500FE
:100C9E007508FA007A08F50004300310F50CFF3ED3
:100CAE00031D542E7508F6007608F8007A080F39E1
:100CBE00F5007508F90078080A128A11A6250A129D
:100CCE008A1179080A128A11A6250A128A11972EFC
:100CDE0002307706031D742E752E972E7408BF3EB4
:100CEE00F5007508FA007A08F50004300310F50CCB
:100CFE00FF3E031D7D2E7508F6007608F8007A0873
:100D0E000F39F5007508F90078080A128A11A62520
:100D1E000A128A1179080A128A11A6250A128A1154
:100D2E00080000300A128A11C0250A128A113430C6
:100D3E00F500F130F400F40BA22EF50BA22EA72E27
:100D4E0003300A128A11A6250A128A110D30F500F7
:100D5E00FB30F400F40BB12EF50BB12EB62E033092
:100D6E000A128A11A6250A128A111D30F500913039
:100D7E00F400F40BC02EF50BC02E03300A128A11AC
:100D8E00A6250A128A1102300A128A11A6250A1203
:100D9E008A1102300A128A11A6250A128A11083007
:100DAE000A128A11A6250A128A1100300A128A1115
:100DBE00A6250A128A110C300A128A11A6250A12C9
:100DCE008A1100300A128A11A6250A128A110630DB
:100DDE000A128A11A6250A128A1108008316031315
:100DEE0088010A128A1198260A128A110A128A1189
:100DFE007F250A128A11F401F40A01300A128A11AF
:100E0E0046260A128A1115300A128A11E2250A1292
:100E1E008A11F401F40A02300A128A1146260A12C5
:100E2E008A1149300A128A11E2250A128A111530E6
:100E3E00FD004B30FC00BE30FB00FB0B242FFC0BE7
:100E4E00242FFD0B242F00000A128A117F250A126F
:100E5E008A11F401F40A01300A128A1146260A1286
:100E6E008A1125300A128A11E2250A128A11F4011A
:100E7E00F40A02300A128A1146260A128A113230F8
:100E8E000A128A11E2250A128A111530FD004B3022
:100E9E00FC00BE30FB00FB0B522FFC0B522FFD0B48
:100EAE00522F00000A128A117F250A128A11F401AC
:100EBE00F40A01300A128A1146260A128A110130EA
:100ECE000A128A11E2250A128A1183120313A00153
:100EDE00A1010430FD000C30FC003330FB00FB0B95
:100EEE00762FFC0B762FFD0B762F7D2F0A128A1193
:100EFE008C250A128A11013083120313A0070318DE
:100F0E00A10A0030A107003021020F300319200280
:100F1E00031C922F932F702FA001A1010430FD000E
:100F2E000C30FC003330FB00FB0B9B2FFC0B9B2F7C
:100F3E00FD0B9B2FA22F0A128A1199250A128A11D4
:100F4E00013083120313A0070318A10A0030A10772
:100F5E00003021020F3003192002031CB72FB82FC7
:100F6E00952F0A128A117F250A128A11F401F40AAA
:100F7E0002300A128A1146260A128A1148300A12C3
:100F8E008A1107260A128A116F300A128A11072651
:100F9E000A128A116C300A128A1107260A128A1155
:100FAE0061300A128A1107260A128A11F401F40A14
:100FBE0001300A128A1146260A128A113E300A128E
:100FCE008A11E2250A128A111530FD004B30FC0001
:100FDE00BE30FB00FB0BF12FFC0BF12FFD0BF12FA5
:100FEE000000FD2E0A128A11002883010A128A11AE
:020FFE00F52ECE
:04400E00D620FF3F7A
:00000001FF
