:020000040000FA
:060000000A128A110C280F
:10000800FE00030EF0000A08F1000A128A11AB2A5A
:100018000A128A110F28F801F901FA01FB0183126B
:100028000313B001B101B201B301B401B501B601C6
:10003800B701B801B901BA01BB0183010A128A11DB
:10004800A828831203133B080A128A1133210A12C3
:100058008A11F500750883120313A0003A080A12E2
:100068008A1133210A128A11F500750883120313C5
:10007800A10039080A128A1133210A128A11F500DF
:10008800750883120313A2002030F5007508A30039
:100098002030F5007508A40000300A128A113321B7
:1000A8000A128A11F500750883120313A50000309F
:1000B8000A128A1133210A128A11F500750883126F
:1000C8000313A60000300A128A1133210A128A117A
:1000D800F500750883120313A7002030F500750892
:1000E800A8002030F5007508A90000300A128A110E
:1000F80033210A128A11F500750883120313AA0026
:1001080000300A128A1133210A128A11F500750883
:1001180083120313AB0000300A128A1133210A122A
:100128008A11F500750883120313AC002030F5001E
:100138007508AD002030F5007508AE002030F500D8
:100148007508AF00203008000A128A116F210A12C0
:100158008A110A128A113E220A128A1190300A1252
:100168008A1196220A128A11F501F50A01300A123B
:100178008A119E210A128A110130F6008030F70098
:100188000A128A11CC210A128A11F501F50A0230E5
:100198000A128A119E210A128A110A128A1125202E
:1001A8000A128A11F6000030F7000A128A11CC21CF
:1001B8000A128A110A128A11F2200A128A110A12E4
:1001C8008A1122220A128A117B08831203138800DB
:1001D8007A088900B8280A128A110C288312031396
:1001E8009F18F728F828322917291E08F2007208E4
:1001F800FB004230F200F20BFF28000083120313C9
:100208001F08C33904389F002A291E08F200720803
:10021800FA004230F200F20B0F290000C3308312BB
:1002280003139F052A291F0CF200720C0F39F300E3
:10023800F4017408003A031922292A297308003A9C
:100248000319F928013A031909292A294230F20029
:10025800F20B2C290000831203139F140800F400EA
:10026800492930306E2931306E2932306E293330C9
:100278006E2934306E2935306E2936306E29373084
:100288006E2938306E2939306E297408F200F3016E
:100298007308003A0319512935297208013A0319DC
:1002A8003729033A03193929013A03193B29073A2F
:1002B80003193D29013A03193F29033A0319412932
:1002C800013A031943290F3A03194529013A031939
:1002D800472935290800831603178801890108145E
:1002E80088148316031386010710871007118801E5
:1002F80089018312031386018701880189017030FF
:10030800831603138F040F140A128A1181220A120A
:100318008A110A128A116C220A128A118B178B12FF
:100328000B118B110B10831603130C138312031379
:100338000C13080083120313A0002003031DA52932
:10034800A629B62975087F3EF6007608A10021087F
:10035800F6007608A20022080A128A1196220A12CA
:100368008A11CB2902302006031DBB29BC29CB29C1
:100378007508BF3EF6007608A1002108F600760849
:10038800A20022080A128A1196220A128A1108006B
:10039800E1297708FF00760884000A128A110022F2
:1003A8000A128A110A128A1157220A128A11013076
:1003B800F6070318F70A0030F707770883120313C4
:1003C800FF00760884000A128A1100220A128A1194
:0C03D800003A031DF029F129CD2908008E
:10040000FF1B0A2A83137F1883170008840A031925
:10041000FF0A080002308A000408840A82070034B8
:1004200020346334753461346C3471347534693418
:1004300065347234203474346534783474346F34F1
:10044000203400342D2A0130F2007208F8073D2ACA
:100450000130F8023D2AF8013D2A7908F200F30143
:100460007308003A0319352A2B2A7208013A031936
:10047000232A033A0319282A2B2A080038300A12A3
:100480008A1196220A128A110C300A128A119622B7
:100490000A128A1106300A128A1196220A128A1149
:1004A00080300A128A1196220A128A110800F4007A
:1004B000740883120313860007148710071503308E
:1004C000F3009730F200F20B632AF30B632A682AD9
:1004D000831203130711080083160313181218154B
:1004E00083160317871519308316031399009A0191
:1004F00083120313981718131816831603139816EC
:100500000800831603139F131F129F1283120313F5
:100510001F083F3940389F00C3309F052130F2004B
:10052000F20B902A831203131F140800F4007408BE
:100530008312031386000710871007150330F3009A
:100540009730F200F20BA22AF30BA22AA72A8312F9
:10055000031307110800831203138C1EB02AB12A5B
:10056000B42A79089A008C1271088A00700E8300F0
:06057000FE0E7E0E0900E4
:04400E00D420FF3F7C
:00000001FF
