:020000040000FA
:060000000A128A110C280F
:10000800FE00030EF0000A08F1000A128A11F92B0B
:100018000A128A110F28FA01FB0183120313BF0188
:10002800C001C101C201C301C401C501C601C701A4
:10003800C801C901CA01CB01CC0183010A128A1186
:100048001A2A0A3083120313A4000030A500643072
:10005800F2000030F3004C08A800A9010310280D95
:10006800F400290DF5000A128A1156210A128A1184
:10007800730883120313A7007208A6000A128A11D4
:10008800BF210A128A118312031324080A128A1143
:1000980069220A128A1183120313AA002A08AB00E4
:1000A8002E30A8002808AC000A30A4000030A500B3
:1000B8006430F2000030F3004C08A800A9010310D6
:1000C800280DF400290DF5000A128A1156210A128A
:1000D8008A11730883120313A7007208A6000A1274
:1000E8008A11BF210A128A118312031324080A12E3
:1000F8008A1169220A128A1183120313AA002A0894
:10010800AD000A30A4000030A5004C08A800A901E1
:100118000310280DA600290DA7000A128A11BF2175
:100128000A128A118312031324080A128A116922F7
:100138000A128A1183120313AA002A08AE0020307B
:10014800A8002808AF000A30A4000030A5006430D9
:10015800F2000030F3004B08A800A9010310280D95
:10016800F400290DF5000A128A1156210A128A1183
:10017800730883120313A7007208A6000A128A11D3
:10018800BF210A128A118312031324080A128A1142
:1001980069220A128A1183120313AA002A08B000DE
:1001A8002E30A8002808B1000A30A4000030A500AD
:1001B8006430F2000030F3004B08A800A9010310D6
:1001C800280DF400290DF5000A128A1156210A1289
:1001D8008A11730883120313A7007208A6000A1273
:1001E8008A11BF210A128A118312031324080A12E2
:1001F8008A1169220A128A1183120313AA002A0893
:10020800B2000A30A4000030A5004B08A800A901DC
:100218000310280DA600290DA7000A128A11BF2174
:100228000A128A118312031324080A128A116922F6
:100238000A128A1183120313AA002A08B300203075
:10024800A8002808B40000300A128A1169220A128C
:100258008A1183120313A8002808B5002E30A800BD
:100268002808B60000300A128A1169220A128A1177
:1002780083120313A8002808B70000300A128A1155
:1002880069220A128A1183120313A8002808B800E9
:100298002030A8002808B9002030A8002808BA0093
:1002A8002B30080083120313A101F31F5C295D2979
:1002B8006429F209F309F20A0319F30AA101A10A50
:1002C800F51F672968297129F409F509F40A031942
:1002D800F50A0130F6007608A106A201A30172080A
:1002E8007304031978297929B029A001A00A87295C
:1002F80001300310F20DF30DFF3E031D7D2901307F
:10030800F6007608A007F31F8A298B297C2901307B
:100318000310A20DA30DFF3E031D8C29730875025F
:10032800031D982972087402031C9B299C29A32980
:100338007208F4027308031CF503F5022214013055
:100348000310F30CF20CFF3E031DA4290130A00298
:10035800031DAF29B0298B2921080319B429B52910
:10036800BA29A209A309A20A0319A30A2308F300B8
:100378002208F2000800F90183120313A71FC529F8
:10038800C629CD29A609A709A60A0319A70AF901AA
:10039800F90AA51FD029D129D629A409A509A40A93
:1003A8000319A50A240825040319DB29DC290B2ACB
:1003B800F801F80AEA2901300310A40DA50DFF3E43
:1003C800031DE0290130F7007708F807A51FED297C
:1003D800EE29DF2925082702031DF429240826020F
:1003E800031CF729F829FE292408A6022508031C5E
:1003F800A703A70201300310A50CA40CFF3E031DA0
:10040800FF290130F802031D0A2A0B2AEE29790870
:1004180003190F2A102A152AA609A709A60A0319DB
:10042800A70A2708A5002608A40008000A128A11AE
:100438000F230A128A110A128A11A1230A128A1199
:1004480090300A128A11E4230A128A110A128A11B8
:10045800A8220A128A110A128A1160230A128A1122
:10046800831203134C088800F501F50A01300A12BB
:100478008A11E3220A128A11013083120313BB0086
:100488008030BC000A128A1138230A128A11F50139
:10049800F50A02300A128A11E3220A128A110A1294
:1004A8008A1125200A128A1183120313BD00BE0186
:1004B8003D08BB003E08BC000A128A1138230A1204
:1004C8008A112A2A0A128A110C28F4007F2A30304D
:1004D800A72A3130A72A3230A72A3330A72A343046
:1004E800A72A3530A72A3630A72A3730A72A383026
:1004F800A72A3930A72A7408F200F3017308003AD2
:100508000319872A6B2A7208003A03196B2A013AE1
:1005180003196D2A033A03196F2A013A0319712A3C
:10052800073A0319732A013A0319752A033A03197A
:10053800772A013A0319792A0F3A03197B2A013AD3
:1005480003197D2A6B2A0800831203139F18AD2A0A
:10055800AE2AE22ACF2A1E08F2007208CC004230E6
:10056800F200F20BB52A0000831203131F08C339E7
:1005780004389F009F14E22A1E08F2007208CB007C
:100588004230F200F20BC62A0000C3308312031374
:100598009F059F14E22A1F0CF200720C0F39F3001A
:1005A800F4017408003A0319DA2AE22A7308003AB7
:1005B8000319AF2A013A0319C02AE22A0800F700F2
:1005C8007703031DE82AE92AF92A75087F3EF60011
:1005D8007608F8007808F6007608F90079080A1213
:1005E8008A11E4230A128A110E2B02307706031DA2
:1005F800FE2AFF2A0E2B7508BF3EF6007608F80083
:100608007808F6007608F90079080A128A11E423B6
:100618000A128A1108008316031788018901081431
:100628008814831603138601870188120813881318
:1006380089018312031386018801890170308316AA
:1006480003138F040F140A128A11CF230A128A1176
:100658008B138B120B118B110B10831603130C13B6
:10066800831203130C1308004F2B3C08FF003B08B0
:1006780084000A128A1182230A128A110A128A1124
:10068800BA230A128A11013083120313BB07031815
:10069800BC0A0030BC07831203133C08FF003B0868
:1006A80084000A128A1182230A128A11003A031D51
:1006B8005E2B5F2B392B0800712B0130F20072087A
:1006C80083120313CA07812B013083120313CA0252
:1006D800812B83120313CA01812B7B08F200F301DB
:1006E8007308003A0319792B6D2B7208013A031924
:1006F800612B033A0319682B6D2B0800FF1B8C2B09
:1007080083137F1883170008840A0319FF0A080057
:1007180003308A000408840A8207003420345334E2
:1007280031342034203420345334323420342034CB
:100738002034533433342034003438300A128A11C8
:10074800E4230A128A110C300A128A11E4230A12CD
:100758008A1106300A128A11E4230A128A1180309B
:100768000A128A11E4230A128A110800F400740894
:100778008312031386008816081388170330F300C2
:100788009730F200F20BC62BF30BC62BCB2B831240
:10079800031388130800831603139F131F129F1255
:1007A800831203131F083F3940389F00C3309F0549
:1007B8002130F200F20BDE2B831203131F14080002
:1007C800F40074088312031386008812081388172C
:1007D8000330F3009730F200F20BF02BF30BF02B01
:1007E800F52B8312031388130800831203138C1E3E
:1007F800FE2BFF2B022C7B089A008C1271088A00B2
:0A080800700E8300FE0E7E0E090044
:04400E00D420FF3F7C
:00000001FF
